{
  "_format": "hh-sol-artifact-1",
  "contractName": "TokenAuth",
  "sourceName": "contracts/Token_Auth.sol",
  "abi": [
    {
      "inputs": [],
      "stateMutability": "nonpayable",
      "type": "constructor"
    },
    {
      "inputs": [
        {
          "internalType": "string",
          "name": "token",
          "type": "string"
        }
      ],
      "name": "storeToken",
      "outputs": [],
      "stateMutability": "nonpayable",
      "type": "function"
    },
    {
      "inputs": [
        {
          "internalType": "string",
          "name": "token",
          "type": "string"
        }
      ],
      "name": "verifyToken",
      "outputs": [
        {
          "internalType": "bool",
          "name": "",
          "type": "bool"
        }
      ],
      "stateMutability": "view",
      "type": "function"
    }
  ],
  "bytecode": "0x608060405234801561001057600080fd5b5033600160006101000a81548173ffffffffffffffffffffffffffffffffffffffff021916908373ffffffffffffffffffffffffffffffffffffffff1602179055506105a4806100616000396000f3fe608060405234801561001057600080fd5b50600436106100355760003560e01c8062dea6d61461003a57806383102c411461006a575b600080fd5b610054600480360381019061004f919061037e565b610086565b60405161006191906103e2565b60405180910390f35b610084600480360381019061007f919061037e565b6100da565b005b6000808260405160200161009a919061046e565b60405160208183030381529060405280519060200120905060008082815260200190815260200160002060009054906101000a900460ff16915050919050565b600160009054906101000a900473ffffffffffffffffffffffffffffffffffffffff1673ffffffffffffffffffffffffffffffffffffffff163373ffffffffffffffffffffffffffffffffffffffff161461016a576040517f08c379a0000000000000000000000000000000000000000000000000000000008152600401610161906104e2565b60405180910390fd5b60008160405160200161017d919061046e565b60405160208183030381529060405280519060200120905060008082815260200190815260200160002060009054906101000a900460ff16156101f5576040517f08c379a00000000000000000000000000000000000000000000000000000000081526004016101ec9061054e565b60405180910390fd5b600160008083815260200190815260200160002060006101000a81548160ff0219169083151502179055505050565b6000604051905090565b600080fd5b600080fd5b600080fd5b600080fd5b6000601f19601f8301169050919050565b7f4e487b7100000000000000000000000000000000000000000000000000000000600052604160045260246000fd5b61028b82610242565b810181811067ffffffffffffffff821117156102aa576102a9610253565b5b80604052505050565b60006102bd610224565b90506102c98282610282565b919050565b600067ffffffffffffffff8211156102e9576102e8610253565b5b6102f282610242565b9050602081019050919050565b82818337600083830152505050565b600061032161031c846102ce565b6102b3565b90508281526020810184848401111561033d5761033c61023d565b5b6103488482856102ff565b509392505050565b600082601f83011261036557610364610238565b5b813561037584826020860161030e565b91505092915050565b6000602082840312156103945761039361022e565b5b600082013567ffffffffffffffff8111156103b2576103b1610233565b5b6103be84828501610350565b91505092915050565b60008115159050919050565b6103dc816103c7565b82525050565b60006020820190506103f760008301846103d3565b92915050565b600081519050919050565b600081905092915050565b60005b83811015610431578082015181840152602081019050610416565b60008484015250505050565b6000610448826103fd565b6104528185610408565b9350610462818560208601610413565b80840191505092915050565b600061047a828461043d565b915081905092915050565b600082825260208201905092915050565b7f4e6f7420617574686f72697a6564000000000000000000000000000000000000600082015250565b60006104cc600e83610485565b91506104d782610496565b602082019050919050565b600060208201905081810360008301526104fb816104bf565b9050919050565b7f546f6b656e20616c726561647920657869737473000000000000000000000000600082015250565b6000610538601483610485565b915061054382610502565b602082019050919050565b600060208201905081810360008301526105678161052b565b905091905056fea2646970667358221220a4e4c96a5ee4bbefe6bfe11bc1adfe63b62777067f4bb5cdb3c9a75a55c18cca64736f6c63430008140033",
  "linkReferences": {},
  "deployedLinkReferences": {}
}